{
  "_format": "hh-sol-artifact-1",
  "contractName": "Savings",
  "sourceName": "contracts/Savings.sol",
  "abi": [
    {
      "inputs": [
        {
          "internalType": "address",
          "name": "_erc20TokenAddress",
          "type": "address"
        },
        {
          "internalType": "address",
          "name": "_sawiTokenAddress",
          "type": "address"
        },
        {
          "internalType": "address",
          "name": "_safuTokenAddress",
          "type": "address"
        }
      ],
      "stateMutability": "nonpayable",
      "type": "constructor"
    },
    {
      "inputs": [
        {
          "internalType": "address",
          "name": "target",
          "type": "address"
        }
      ],
      "name": "AddressEmptyCode",
      "type": "error"
    },
    {
      "inputs": [
        {
          "internalType": "address",
          "name": "account",
          "type": "address"
        }
      ],
      "name": "AddressInsufficientBalance",
      "type": "error"
    },
    {
      "inputs": [],
      "name": "AddressZeroDetected",
      "type": "error"
    },
    {
      "inputs": [],
      "name": "ContractPaused",
      "type": "error"
    },
    {
      "inputs": [],
      "name": "FailedInnerCall",
      "type": "error"
    },
    {
      "inputs": [],
      "name": "InsufficientAllowance",
      "type": "error"
    },
    {
      "inputs": [],
      "name": "InsufficientFunds",
      "type": "error"
    },
    {
      "inputs": [],
      "name": "InvalidInput",
      "type": "error"
    },
    {
      "inputs": [],
      "name": "InvalidPercentage",
      "type": "error"
    },
    {
      "inputs": [],
      "name": "InvalidTokenAddress",
      "type": "error"
    },
    {
      "inputs": [],
      "name": "InvalidWithdrawal",
      "type": "error"
    },
    {
      "inputs": [],
      "name": "PlanAlreadyExists",
      "type": "error"
    },
    {
      "inputs": [],
      "name": "ReentrancyGuardReentrantCall",
      "type": "error"
    },
    {
      "inputs": [
        {
          "internalType": "address",
          "name": "token",
          "type": "address"
        }
      ],
      "name": "SafeERC20FailedOperation",
      "type": "error"
    },
    {
      "inputs": [],
      "name": "SpendAndSavePlanNotFound",
      "type": "error"
    },
    {
      "inputs": [],
      "name": "UnauthorizedCaller",
      "type": "error"
    },
    {
      "inputs": [],
      "name": "ZeroValueNotAllowed",
      "type": "error"
    },
    {
      "inputs": [],
      "name": "userAutomatedPlanExistsAlreadyExists",
      "type": "error"
    },
    {
      "inputs": [],
      "name": "userSpendAndSavePlanAlreadyExists",
      "type": "error"
    },
    {
      "anonymous": false,
      "inputs": [
        {
          "indexed": true,
          "internalType": "address",
          "name": "user",
          "type": "address"
        },
        {
          "indexed": true,
          "internalType": "address",
          "name": "token",
          "type": "address"
        },
        {
          "indexed": false,
          "internalType": "uint256",
          "name": "amount",
          "type": "uint256"
        },
        {
          "indexed": false,
          "internalType": "uint256",
          "name": "frequency",
          "type": "uint256"
        }
      ],
      "name": "AutomatedPlanCreated",
      "type": "event"
    },
    {
      "anonymous": false,
      "inputs": [
        {
          "indexed": true,
          "internalType": "address",
          "name": "user",
          "type": "address"
        },
        {
          "indexed": true,
          "internalType": "address",
          "name": "token",
          "type": "address"
        },
        {
          "indexed": false,
          "internalType": "uint256",
          "name": "amount",
          "type": "uint256"
        }
      ],
      "name": "AutomatedSavingExecuted",
      "type": "event"
    },
    {
      "anonymous": false,
      "inputs": [
        {
          "indexed": true,
          "internalType": "address",
          "name": "user",
          "type": "address"
        },
        {
          "indexed": true,
          "internalType": "address",
          "name": "token",
          "type": "address"
        },
        {
          "indexed": false,
          "internalType": "uint256",
          "name": "amount",
          "type": "uint256"
        },
        {
          "indexed": false,
          "internalType": "uint256",
          "name": "frequency",
          "type": "uint256"
        }
      ],
      "name": "AutomatedSavingSet",
      "type": "event"
    },
    {
      "anonymous": false,
      "inputs": [
        {
          "indexed": true,
          "internalType": "address",
          "name": "user",
          "type": "address"
        },
        {
          "indexed": true,
          "internalType": "address",
          "name": "token",
          "type": "address"
        },
        {
          "indexed": false,
          "internalType": "uint256",
          "name": "amount",
          "type": "uint256"
        }
      ],
      "name": "DepositSuccessful",
      "type": "event"
    },
    {
      "anonymous": false,
      "inputs": [
        {
          "indexed": true,
          "internalType": "address",
          "name": "user",
          "type": "address"
        },
        {
          "indexed": true,
          "internalType": "address",
          "name": "token",
          "type": "address"
        },
        {
          "indexed": false,
          "internalType": "uint8",
          "name": "percentage",
          "type": "uint8"
        },
        {
          "indexed": false,
          "internalType": "uint256",
          "name": "duration",
          "type": "uint256"
        }
      ],
      "name": "PlanCreated",
      "type": "event"
    },
    {
      "anonymous": false,
      "inputs": [
        {
          "indexed": true,
          "internalType": "address",
          "name": "user",
          "type": "address"
        },
        {
          "indexed": true,
          "internalType": "address",
          "name": "token",
          "type": "address"
        },
        {
          "indexed": false,
          "internalType": "uint256",
          "name": "amount",
          "type": "uint256"
        },
        {
          "indexed": false,
          "internalType": "uint256",
          "name": "duration",
          "type": "uint256"
        }
      ],
      "name": "SavedSuccessfully",
      "type": "event"
    },
    {
      "anonymous": false,
      "inputs": [
        {
          "indexed": true,
          "internalType": "address",
          "name": "user",
          "type": "address"
        },
        {
          "indexed": false,
          "internalType": "uint256",
          "name": "amount",
          "type": "uint256"
        },
        {
          "indexed": false,
          "internalType": "uint256",
          "name": "fee",
          "type": "uint256"
        },
        {
          "indexed": false,
          "internalType": "bool",
          "name": "earlyWithdrawal",
          "type": "bool"
        }
      ],
      "name": "SavingsWithdrawn",
      "type": "event"
    },
    {
      "anonymous": false,
      "inputs": [
        {
          "indexed": true,
          "internalType": "address",
          "name": "user",
          "type": "address"
        },
        {
          "indexed": true,
          "internalType": "address",
          "name": "token",
          "type": "address"
        },
        {
          "indexed": false,
          "internalType": "uint256",
          "name": "amountSaved",
          "type": "uint256"
        }
      ],
      "name": "SpendAndSave",
      "type": "event"
    },
    {
      "anonymous": false,
      "inputs": [
        {
          "indexed": true,
          "internalType": "address",
          "name": "token",
          "type": "address"
        },
        {
          "indexed": false,
          "internalType": "enum Savings.TokenType",
          "name": "tokenType",
          "type": "uint8"
        }
      ],
      "name": "TokenAdded",
      "type": "event"
    },
    {
      "anonymous": false,
      "inputs": [
        {
          "indexed": true,
          "internalType": "address",
          "name": "token",
          "type": "address"
        },
        {
          "indexed": false,
          "internalType": "enum Savings.TokenType",
          "name": "tokenType",
          "type": "uint8"
        }
      ],
      "name": "TokenRemoved",
      "type": "event"
    },
    {
      "anonymous": false,
      "inputs": [
        {
          "indexed": true,
          "internalType": "address",
          "name": "user",
          "type": "address"
        },
        {
          "indexed": false,
          "internalType": "uint256",
          "name": "txCount",
          "type": "uint256"
        },
        {
          "indexed": false,
          "internalType": "uint256",
          "name": "txId",
          "type": "uint256"
        },
        {
          "indexed": true,
          "internalType": "address",
          "name": "token",
          "type": "address"
        },
        {
          "indexed": false,
          "internalType": "string",
          "name": "typeOfTransaction",
          "type": "string"
        },
        {
          "indexed": false,
          "internalType": "uint256",
          "name": "amount",
          "type": "uint256"
        },
        {
          "indexed": false,
          "internalType": "uint256",
          "name": "timestamp",
          "type": "uint256"
        }
      ],
      "name": "TransactionHistoryUpdated",
      "type": "event"
    },
    {
      "anonymous": false,
      "inputs": [
        {
          "indexed": true,
          "internalType": "address",
          "name": "user",
          "type": "address"
        },
        {
          "indexed": false,
          "internalType": "address",
          "name": "tokenType",
          "type": "address"
        },
        {
          "indexed": false,
          "internalType": "uint256",
          "name": "amount",
          "type": "uint256"
        }
      ],
      "name": "Withdrawn",
      "type": "event"
    },
    {
      "inputs": [],
      "name": "acceptedTokenCount",
      "outputs": [
        {
          "internalType": "uint8",
          "name": "",
          "type": "uint8"
        }
      ],
      "stateMutability": "view",
      "type": "function"
    },
    {
      "inputs": [
        {
          "internalType": "address",
          "name": "",
          "type": "address"
        }
      ],
      "name": "acceptedTokens",
      "outputs": [
        {
          "internalType": "bool",
          "name": "",
          "type": "bool"
        }
      ],
      "stateMutability": "view",
      "type": "function"
    },
    {
      "inputs": [
        {
          "internalType": "enum Savings.TokenType",
          "name": "",
          "type": "uint8"
        }
      ],
      "name": "acceptedTokensAddresses",
      "outputs": [
        {
          "internalType": "address",
          "name": "",
          "type": "address"
        }
      ],
      "stateMutability": "view",
      "type": "function"
    },
    {
      "inputs": [
        {
          "internalType": "address",
          "name": "",
          "type": "address"
        }
      ],
      "name": "automatedSavingsPlans",
      "outputs": [
        {
          "internalType": "address",
          "name": "token",
          "type": "address"
        },
        {
          "internalType": "uint256",
          "name": "amount",
          "type": "uint256"
        },
        {
          "internalType": "uint256",
          "name": "frequency",
          "type": "uint256"
        },
        {
          "internalType": "uint256",
          "name": "duration",
          "type": "uint256"
        },
        {
          "internalType": "uint256",
          "name": "lastSavingTimestamp",
          "type": "uint256"
        }
      ],
      "stateMutability": "view",
      "type": "function"
    },
    {
      "inputs": [],
      "name": "claimAll",
      "outputs": [],
      "stateMutability": "nonpayable",
      "type": "function"
    },
    {
      "inputs": [
        {
          "internalType": "address",
          "name": "_token",
          "type": "address"
        },
        {
          "internalType": "uint256",
          "name": "_amount",
          "type": "uint256"
        },
        {
          "internalType": "uint256",
          "name": "_frequency",
          "type": "uint256"
        },
        {
          "internalType": "uint256",
          "name": "_duration",
          "type": "uint256"
        }
      ],
      "name": "createAutomatedSavingsPlan",
      "outputs": [],
      "stateMutability": "nonpayable",
      "type": "function"
    },
    {
      "inputs": [
        {
          "internalType": "address",
          "name": "_token",
          "type": "address"
        },
        {
          "internalType": "uint8",
          "name": "_percentage",
          "type": "uint8"
        },
        {
          "internalType": "uint256",
          "name": "_duration",
          "type": "uint256"
        }
      ],
      "name": "createSpendAndSavePlan",
      "outputs": [],
      "stateMutability": "nonpayable",
      "type": "function"
    },
    {
      "inputs": [
        {
          "internalType": "uint256",
          "name": "_amount",
          "type": "uint256"
        },
        {
          "internalType": "address",
          "name": "_token",
          "type": "address"
        }
      ],
      "name": "depositToPool",
      "outputs": [],
      "stateMutability": "nonpayable",
      "type": "function"
    },
    {
      "inputs": [
        {
          "internalType": "address",
          "name": "_user",
          "type": "address"
        }
      ],
      "name": "executeAutomatedSaving",
      "outputs": [],
      "stateMutability": "nonpayable",
      "type": "function"
    },
    {
      "inputs": [
        {
          "internalType": "address",
          "name": "_user",
          "type": "address"
        }
      ],
      "name": "getAvailableBalances",
      "outputs": [
        {
          "internalType": "address[]",
          "name": "",
          "type": "address[]"
        },
        {
          "internalType": "uint256[]",
          "name": "",
          "type": "uint256[]"
        }
      ],
      "stateMutability": "view",
      "type": "function"
    },
    {
      "inputs": [
        {
          "internalType": "address",
          "name": "_token",
          "type": "address"
        }
      ],
      "name": "getContractBalance",
      "outputs": [
        {
          "internalType": "uint256",
          "name": "",
          "type": "uint256"
        }
      ],
      "stateMutability": "view",
      "type": "function"
    },
    {
      "inputs": [],
      "name": "getScheduledSavings",
      "outputs": [
        {
          "components": [
            {
              "internalType": "address",
              "name": "token",
              "type": "address"
            },
            {
              "internalType": "uint256",
              "name": "amount",
              "type": "uint256"
            },
            {
              "internalType": "uint256",
              "name": "scheduledDate",
              "type": "uint256"
            }
          ],
          "internalType": "struct Savings.ScheduledSaving[]",
          "name": "",
          "type": "tuple[]"
        }
      ],
      "stateMutability": "view",
      "type": "function"
    },
    {
      "inputs": [
        {
          "internalType": "uint256",
          "name": "offset",
          "type": "uint256"
        },
        {
          "internalType": "uint256",
          "name": "limit",
          "type": "uint256"
        }
      ],
      "name": "getTransactionHistory",
      "outputs": [
        {
          "components": [
            {
              "internalType": "uint256",
              "name": "id",
              "type": "uint256"
            },
            {
              "internalType": "address",
              "name": "user",
              "type": "address"
            },
            {
              "internalType": "address",
              "name": "token",
              "type": "address"
            },
            {
              "internalType": "string",
              "name": "typeOfTransaction",
              "type": "string"
            },
            {
              "internalType": "uint256",
              "name": "amount",
              "type": "uint256"
            },
            {
              "internalType": "uint256",
              "name": "timestamp",
              "type": "uint256"
            }
          ],
          "internalType": "struct Savings.Transaction[]",
          "name": "",
          "type": "tuple[]"
        }
      ],
      "stateMutability": "view",
      "type": "function"
    },
    {
      "inputs": [
        {
          "internalType": "address",
          "name": "_user",
          "type": "address"
        }
      ],
      "name": "getUserBalances",
      "outputs": [
        {
          "internalType": "address[]",
          "name": "",
          "type": "address[]"
        },
        {
          "internalType": "uint256[]",
          "name": "",
          "type": "uint256[]"
        }
      ],
      "stateMutability": "view",
      "type": "function"
    },
    {
      "inputs": [
        {
          "internalType": "address",
          "name": "_user",
          "type": "address"
        }
      ],
      "name": "getUserSavings",
      "outputs": [
        {
          "components": [
            {
              "internalType": "string",
              "name": "typeOfSafe",
              "type": "string"
            },
            {
              "internalType": "uint256",
              "name": "id",
              "type": "uint256"
            },
            {
              "internalType": "address",
              "name": "token",
              "type": "address"
            },
            {
              "internalType": "uint256",
              "name": "amount",
              "type": "uint256"
            },
            {
              "internalType": "uint256",
              "name": "duration",
              "type": "uint256"
            },
            {
              "internalType": "uint256",
              "name": "startTime",
              "type": "uint256"
            },
            {
              "internalType": "uint256",
              "name": "unlockTime",
              "type": "uint256"
            }
          ],
          "internalType": "struct Savings.Safe[]",
          "name": "",
          "type": "tuple[]"
        }
      ],
      "stateMutability": "view",
      "type": "function"
    },
    {
      "inputs": [
        {
          "internalType": "address",
          "name": "",
          "type": "address"
        },
        {
          "internalType": "address",
          "name": "",
          "type": "address"
        }
      ],
      "name": "isTokenAutoSaved",
      "outputs": [
        {
          "internalType": "bool",
          "name": "",
          "type": "bool"
        }
      ],
      "stateMutability": "view",
      "type": "function"
    },
    {
      "inputs": [],
      "name": "owner",
      "outputs": [
        {
          "internalType": "address",
          "name": "",
          "type": "address"
        }
      ],
      "stateMutability": "view",
      "type": "function"
    },
    {
      "inputs": [
        {
          "internalType": "address",
          "name": "_token",
          "type": "address"
        },
        {
          "internalType": "uint256",
          "name": "_amount",
          "type": "uint256"
        },
        {
          "internalType": "uint256",
          "name": "_duration",
          "type": "uint256"
        }
      ],
      "name": "save",
      "outputs": [],
      "stateMutability": "nonpayable",
      "type": "function"
    },
    {
      "inputs": [
        {
          "internalType": "address",
          "name": "_token",
          "type": "address"
        },
        {
          "internalType": "uint256",
          "name": "_amount",
          "type": "uint256"
        }
      ],
      "name": "spendAndSave",
      "outputs": [],
      "stateMutability": "nonpayable",
      "type": "function"
    },
    {
      "inputs": [
        {
          "internalType": "address",
          "name": "",
          "type": "address"
        },
        {
          "internalType": "address",
          "name": "",
          "type": "address"
        }
      ],
      "name": "totalAmountSaved",
      "outputs": [
        {
          "internalType": "uint256",
          "name": "",
          "type": "uint256"
        }
      ],
      "stateMutability": "view",
      "type": "function"
    },
    {
      "inputs": [
        {
          "internalType": "address",
          "name": "",
          "type": "address"
        }
      ],
      "name": "userAutomatedPlanExists",
      "outputs": [
        {
          "internalType": "bool",
          "name": "",
          "type": "bool"
        }
      ],
      "stateMutability": "view",
      "type": "function"
    },
    {
      "inputs": [
        {
          "internalType": "address",
          "name": "",
          "type": "address"
        }
      ],
      "name": "userSpendAndSavePlan",
      "outputs": [
        {
          "internalType": "address",
          "name": "token",
          "type": "address"
        },
        {
          "internalType": "uint256",
          "name": "balance",
          "type": "uint256"
        },
        {
          "internalType": "uint8",
          "name": "percentage",
          "type": "uint8"
        },
        {
          "internalType": "uint256",
          "name": "duration",
          "type": "uint256"
        }
      ],
      "stateMutability": "view",
      "type": "function"
    },
    {
      "inputs": [
        {
          "internalType": "address",
          "name": "",
          "type": "address"
        }
      ],
      "name": "userSpendAndSavePlanExists",
      "outputs": [
        {
          "internalType": "bool",
          "name": "",
          "type": "bool"
        }
      ],
      "stateMutability": "view",
      "type": "function"
    },
    {
      "inputs": [
        {
          "internalType": "address",
          "name": "",
          "type": "address"
        },
        {
          "internalType": "uint256",
          "name": "",
          "type": "uint256"
        }
      ],
      "name": "userTransactions",
      "outputs": [
        {
          "internalType": "uint256",
          "name": "id",
          "type": "uint256"
        },
        {
          "internalType": "address",
          "name": "user",
          "type": "address"
        },
        {
          "internalType": "address",
          "name": "token",
          "type": "address"
        },
        {
          "internalType": "string",
          "name": "typeOfTransaction",
          "type": "string"
        },
        {
          "internalType": "uint256",
          "name": "amount",
          "type": "uint256"
        },
        {
          "internalType": "uint256",
          "name": "timestamp",
          "type": "uint256"
        }
      ],
      "stateMutability": "view",
      "type": "function"
    },
    {
      "inputs": [
        {
          "internalType": "address",
          "name": "_token",
          "type": "address"
        },
        {
          "internalType": "uint256",
          "name": "_amount",
          "type": "uint256"
        }
      ],
      "name": "withdrawFromPool",
      "outputs": [],
      "stateMutability": "nonpayable",
      "type": "function"
    },
    {
      "inputs": [
        {
          "internalType": "uint256",
          "name": "_savingsIndex",
          "type": "uint256"
        },
        {
          "internalType": "bool",
          "name": "_acceptEarlyWithdrawalFee",
          "type": "bool"
        }
      ],
      "name": "withdrawSavings",
      "outputs": [],
      "stateMutability": "nonpayable",
      "type": "function"
    }
  ],
  "bytecode": "0x60806040523480156200001157600080fd5b506040516200602438038062006024833981810160405281019062000037919062000481565b600160008190555033600160006101000a81548173ffffffffffffffffffffffffffffffffffffffff021916908373ffffffffffffffffffffffffffffffffffffffff160217905550600073ffffffffffffffffffffffffffffffffffffffff168373ffffffffffffffffffffffffffffffffffffffff161480620000e85750600073ffffffffffffffffffffffffffffffffffffffff168273ffffffffffffffffffffffffffffffffffffffff16145b80620001205750600073ffffffffffffffffffffffffffffffffffffffff168173ffffffffffffffffffffffffffffffffffffffff16145b1562000158576040517f287170f900000000000000000000000000000000000000000000000000000000815260040160405180910390fd5b8260086000806002811115620001735762000172620004dd565b5b6002811115620001885762000187620004dd565b5b815260200190815260200160002060006101000a81548173ffffffffffffffffffffffffffffffffffffffff021916908373ffffffffffffffffffffffffffffffffffffffff160217905550816008600060016002811115620001f057620001ef620004dd565b5b6002811115620002055762000204620004dd565b5b815260200190815260200160002060006101000a81548173ffffffffffffffffffffffffffffffffffffffff021916908373ffffffffffffffffffffffffffffffffffffffff16021790555080600860006002808111156200026c576200026b620004dd565b5b6002811115620002815762000280620004dd565b5b815260200190815260200160002060006101000a81548173ffffffffffffffffffffffffffffffffffffffff021916908373ffffffffffffffffffffffffffffffffffffffff1602179055506001600960008573ffffffffffffffffffffffffffffffffffffffff1673ffffffffffffffffffffffffffffffffffffffff16815260200190815260200160002060006101000a81548160ff0219169083151502179055506001600960008473ffffffffffffffffffffffffffffffffffffffff1673ffffffffffffffffffffffffffffffffffffffff16815260200190815260200160002060006101000a81548160ff0219169083151502179055506001600960008373ffffffffffffffffffffffffffffffffffffffff1673ffffffffffffffffffffffffffffffffffffffff16815260200190815260200160002060006101000a81548160ff0219169083151502179055506003600160148282829054906101000a900460ff16620003f6919062000548565b92506101000a81548160ff021916908360ff16021790555050505062000584565b600080fd5b600073ffffffffffffffffffffffffffffffffffffffff82169050919050565b600062000449826200041c565b9050919050565b6200045b816200043c565b81146200046757600080fd5b50565b6000815190506200047b8162000450565b92915050565b6000806000606084860312156200049d576200049c62000417565b5b6000620004ad868287016200046a565b9350506020620004c0868287016200046a565b9250506040620004d3868287016200046a565b9150509250925092565b7f4e487b7100000000000000000000000000000000000000000000000000000000600052602160045260246000fd5b600060ff82169050919050565b7f4e487b7100000000000000000000000000000000000000000000000000000000600052601160045260246000fd5b600062000555826200050c565b915062000562836200050c565b9250828201905060ff8111156200057e576200057d62000519565b5b92915050565b615a9080620005946000396000f3fe608060405234801561001057600080fd5b506004361061018e5760003560e01c8063a39c7a9c116100de578063bf57009611610097578063d1058e5911610071578063d1058e59146104fc578063d4758f9814610506578063f0819d3514610522578063f80a2057146105555761018e565b8063bf5700961461048e578063c1bf9e58146104c2578063d07c5cee146104de5761018e565b8063a39c7a9c1461037c578063a3c781d3146103ac578063a60224a4146103dc578063abd3f6121461040c578063b842ec441461043d578063b97bf202146104725761018e565b806351bd9dae1161014b57806389904c331161012557806389904c33146102f35780638bb51082146103245780638da5cb5b146103405780639c8761291461035e5761018e565b806351bd9dae146102775780637ac5ada2146102a757806382dc4a05146102c35761018e565b80630a64dc3e146101935780631d929d7d146101af57806324347205146101cb578063430ed604146101fb57806343ab265f1461021757806345f7dd1414610247575b600080fd5b6101ad60048036038101906101a891906146db565b610585565b005b6101c960048036038101906101c4919061473e565b610b5a565b005b6101e560048036038101906101e0919061477e565b610f54565b6040516101f291906147d9565b60405180910390f35b610215600480360381019061021091906147f4565b610f83565b005b610231600480360381019061022c91906146db565b61157d565b60405161023e9190614856565b60405180910390f35b610261600480360381019061025c9190614896565b611690565b60405161026e91906148d2565b60405180910390f35b610291600480360381019061028c91906146db565b6116c3565b60405161029e91906147d9565b60405180910390f35b6102c160048036038101906102bc9190614926565b6116e3565b005b6102dd60048036038101906102d891906146db565b611a2d565b6040516102ea91906147d9565b60405180910390f35b61030d600480360381019061030891906146db565b611a4d565b60405161031b929190614af5565b60405180910390f35b61033e60048036038101906103399190614b2c565b611f36565b005b6103486124c4565b60405161035591906148d2565b60405180910390f35b6103666124ea565b6040516103739190614b7b565b60405180910390f35b61039660048036038101906103919190614b96565b6124fd565b6040516103a39190614db1565b60405180910390f35b6103c660048036038101906103c191906146db565b61289c565b6040516103d391906147d9565b60405180910390f35b6103f660048036038101906103f1919061477e565b6128bc565b6040516104039190614856565b60405180910390f35b610426600480360381019061042191906146db565b6128e1565b604051610434929190614af5565b60405180910390f35b61045760048036038101906104529190614b2c565b612ea7565b60405161046996959493929190614e1d565b60405180910390f35b61048c60048036038101906104879190614eb1565b612fc8565b005b6104a860048036038101906104a391906146db565b613427565b6040516104b9959493929190614ef1565b60405180910390f35b6104dc60048036038101906104d79190614b2c565b61347d565b005b6104e66136cf565b6040516104f39190615035565b60405180910390f35b6105046138f1565b005b610520600480360381019061051b9190615057565b6138f3565b005b61053c600480360381019061053791906146db565b613cc6565b60405161054c94939291906150be565b60405180910390f35b61056f600480360381019061056a91906146db565b613d23565b60405161057c9190615261565b60405180910390f35b6000600a60008373ffffffffffffffffffffffffffffffffffffffff1673ffffffffffffffffffffffffffffffffffffffff16815260200190815260200160002090506000816001015414806105df575060008160020154145b156105ea5750610b57565b806002015481600401546105fe91906152b2565b42101561060b5750610b57565b8060010154600560008473ffffffffffffffffffffffffffffffffffffffff1673ffffffffffffffffffffffffffffffffffffffff16815260200190815260200160002060008360000160009054906101000a900473ffffffffffffffffffffffffffffffffffffffff1673ffffffffffffffffffffffffffffffffffffffff1673ffffffffffffffffffffffffffffffffffffffff1681526020019081526020016000205410156106bd5750610b57565b8060010154600560008473ffffffffffffffffffffffffffffffffffffffff1673ffffffffffffffffffffffffffffffffffffffff16815260200190815260200160002060008360000160009054906101000a900473ffffffffffffffffffffffffffffffffffffffff1673ffffffffffffffffffffffffffffffffffffffff1673ffffffffffffffffffffffffffffffffffffffff168152602001908152602001600020600082825461077191906152e6565b925050819055506000600760008473ffffffffffffffffffffffffffffffffffffffff1673ffffffffffffffffffffffffffffffffffffffff1681526020019081526020016000205490506040518060e001604052806040518060400160405280600981526020017f4175746f6d61746564000000000000000000000000000000000000000000000081525081526020018281526020018360000160009054906101000a900473ffffffffffffffffffffffffffffffffffffffff1673ffffffffffffffffffffffffffffffffffffffff16815260200183600101548152602001600081526020014281526020016000815250600660008573ffffffffffffffffffffffffffffffffffffffff1673ffffffffffffffffffffffffffffffffffffffff168152602001908152602001600020600083815260200190815260200160002060008201518160000190816108c99190615555565b506020820151816001015560408201518160020160006101000a81548173ffffffffffffffffffffffffffffffffffffffff021916908373ffffffffffffffffffffffffffffffffffffffff160217905550606082015181600301556080820151816004015560a0820151816005015560c08201518160060155905050600760008473ffffffffffffffffffffffffffffffffffffffff1673ffffffffffffffffffffffffffffffffffffffff168152602001908152602001600020600081548092919061099690615627565b91905055504282600401819055508160010154600360008573ffffffffffffffffffffffffffffffffffffffff1673ffffffffffffffffffffffffffffffffffffffff16815260200190815260200160002060008460000160009054906101000a900473ffffffffffffffffffffffffffffffffffffffff1673ffffffffffffffffffffffffffffffffffffffff1673ffffffffffffffffffffffffffffffffffffffff1681526020019081526020016000206000828254610a5891906152b2565b92505081905550610ac76040518060400160405280600981526020017f6175746f207361766500000000000000000000000000000000000000000000008152508360000160009054906101000a900473ffffffffffffffffffffffffffffffffffffffff168460010154613f77565b8160000160009054906101000a900473ffffffffffffffffffffffffffffffffffffffff1673ffffffffffffffffffffffffffffffffffffffff168373ffffffffffffffffffffffffffffffffffffffff167f751ceaac5dfa620113dae99692e4bcc148db4733b03842d178484c50d980035c8460010154604051610b4c9190614856565b60405180910390a350505b50565b600073ffffffffffffffffffffffffffffffffffffffff163373ffffffffffffffffffffffffffffffffffffffff1603610bc0576040517f287170f900000000000000000000000000000000000000000000000000000000815260040160405180910390fd5b60008203610bfa576040517f9cf8540c00000000000000000000000000000000000000000000000000000000815260040160405180910390fd5b600960008273ffffffffffffffffffffffffffffffffffffffff1673ffffffffffffffffffffffffffffffffffffffff16815260200190815260200160002060009054906101000a900460ff16610c7d576040517f1eb00b0600000000000000000000000000000000000000000000000000000000815260040160405180910390fd5b818173ffffffffffffffffffffffffffffffffffffffff166370a08231336040518263ffffffff1660e01b8152600401610cb791906148d2565b602060405180830381865afa158015610cd4573d6000803e3d6000fd5b505050506040513d601f19601f82011682018060405250810190610cf89190615684565b1015610d30576040517f356680b700000000000000000000000000000000000000000000000000000000815260040160405180910390fd5b60008173ffffffffffffffffffffffffffffffffffffffff1663dd62ed3e33306040518363ffffffff1660e01b8152600401610d6d9291906156b1565b602060405180830381865afa158015610d8a573d6000803e3d6000fd5b505050506040513d601f19601f82011682018060405250810190610dae9190615684565b905082811015610dea576040517f13be252b00000000000000000000000000000000000000000000000000000000815260040160405180910390fd5b610e173330858573ffffffffffffffffffffffffffffffffffffffff16614190909392919063ffffffff16565b82600560003373ffffffffffffffffffffffffffffffffffffffff1673ffffffffffffffffffffffffffffffffffffffff16815260200190815260200160002060008473ffffffffffffffffffffffffffffffffffffffff1673ffffffffffffffffffffffffffffffffffffffff1681526020019081526020016000206000828254610ea391906152b2565b92505081905550610eea6040518060400160405280600781526020017f6465706f736974000000000000000000000000000000000000000000000000008152508385613f77565b8173ffffffffffffffffffffffffffffffffffffffff163373ffffffffffffffffffffffffffffffffffffffff167f9ca48962abdef1f62fa7920028db6cba8d22078c8f24fa2c9d3738a7cebe7a8585604051610f479190614856565b60405180910390a3505050565b600e6020528160005260406000206020528060005260406000206000915091509054906101000a900460ff1681565b610f8b614212565b600073ffffffffffffffffffffffffffffffffffffffff163373ffffffffffffffffffffffffffffffffffffffff1603610ff1576040517f287170f900000000000000000000000000000000000000000000000000000000815260040160405180910390fd5b6000820361102b576040517f9cf8540c00000000000000000000000000000000000000000000000000000000815260040160405180910390fd5b600960008473ffffffffffffffffffffffffffffffffffffffff1673ffffffffffffffffffffffffffffffffffffffff16815260200190815260200160002060009054906101000a900460ff166110ae576040517f1eb00b0600000000000000000000000000000000000000000000000000000000815260040160405180910390fd5b600081036110e8576040517fb4fa3fb300000000000000000000000000000000000000000000000000000000815260040160405180910390fd5b81600560003373ffffffffffffffffffffffffffffffffffffffff1673ffffffffffffffffffffffffffffffffffffffff16815260200190815260200160002060008573ffffffffffffffffffffffffffffffffffffffff1673ffffffffffffffffffffffffffffffffffffffff16815260200190815260200160002054101561119e576040517f356680b700000000000000000000000000000000000000000000000000000000815260040160405180910390fd5b81600560003373ffffffffffffffffffffffffffffffffffffffff1673ffffffffffffffffffffffffffffffffffffffff16815260200190815260200160002060008573ffffffffffffffffffffffffffffffffffffffff1673ffffffffffffffffffffffffffffffffffffffff168152602001908152602001600020600082825461122a91906152e6565b925050819055506000600760003373ffffffffffffffffffffffffffffffffffffffff1673ffffffffffffffffffffffffffffffffffffffff1681526020019081526020016000205490506040518060e001604052806040518060400160405280600581526020017f426173696300000000000000000000000000000000000000000000000000000081525081526020018281526020018573ffffffffffffffffffffffffffffffffffffffff16815260200184815260200183815260200142815260200183426112fb91906152b2565b815250600660003373ffffffffffffffffffffffffffffffffffffffff1673ffffffffffffffffffffffffffffffffffffffff168152602001908152602001600020600083815260200190815260200160002060008201518160000190816113639190615555565b506020820151816001015560408201518160020160006101000a81548173ffffffffffffffffffffffffffffffffffffffff021916908373ffffffffffffffffffffffffffffffffffffffff160217905550606082015181600301556080820151816004015560a0820151816005015560c08201518160060155905050600760003373ffffffffffffffffffffffffffffffffffffffff1673ffffffffffffffffffffffffffffffffffffffff168152602001908152602001600020600081548092919061143090615627565b919050555082600360003373ffffffffffffffffffffffffffffffffffffffff1673ffffffffffffffffffffffffffffffffffffffff16815260200190815260200160002060008673ffffffffffffffffffffffffffffffffffffffff1673ffffffffffffffffffffffffffffffffffffffff16815260200190815260200160002060008282546114c191906152b2565b925050819055506115086040518060400160405280600481526020017f73617665000000000000000000000000000000000000000000000000000000008152508585613f77565b8373ffffffffffffffffffffffffffffffffffffffff163373ffffffffffffffffffffffffffffffffffffffff167f3366ce755cd25539463e10c81609f7acf012fd288caed6c0f6494f6808268ce485856040516115679291906156da565b60405180910390a350611578614258565b505050565b6000600160009054906101000a900473ffffffffffffffffffffffffffffffffffffffff1673ffffffffffffffffffffffffffffffffffffffff163373ffffffffffffffffffffffffffffffffffffffff161461160f576040517f08c379a00000000000000000000000000000000000000000000000000000000081526004016116069061574f565b60405180910390fd5b8173ffffffffffffffffffffffffffffffffffffffff166370a08231306040518263ffffffff1660e01b815260040161164891906148d2565b602060405180830381865afa158015611665573d6000803e3d6000fd5b505050506040513d601f19601f820116820180604052508101906116899190615684565b9050919050565b60086020528060005260406000206000915054906101000a900473ffffffffffffffffffffffffffffffffffffffff1681565b600c6020528060005260406000206000915054906101000a900460ff1681565b600960008473ffffffffffffffffffffffffffffffffffffffff1673ffffffffffffffffffffffffffffffffffffffff16815260200190815260200160002060009054906101000a900460ff16611766576040517f1eb00b0600000000000000000000000000000000000000000000000000000000815260040160405180910390fd5b60008260ff16148061177b575060648260ff16115b156117b2576040517f1f3b85d300000000000000000000000000000000000000000000000000000000815260040160405180910390fd5b600081036117ec576040517fb4fa3fb300000000000000000000000000000000000000000000000000000000815260040160405180910390fd5b600c60003373ffffffffffffffffffffffffffffffffffffffff1673ffffffffffffffffffffffffffffffffffffffff16815260200190815260200160002060009054906101000a900460ff1615611870576040517f1b7af59100000000000000000000000000000000000000000000000000000000815260040160405180910390fd5b60405180608001604052808473ffffffffffffffffffffffffffffffffffffffff168152602001600081526020018360ff16815260200182815250600b60003373ffffffffffffffffffffffffffffffffffffffff1673ffffffffffffffffffffffffffffffffffffffff16815260200190815260200160002060008201518160000160006101000a81548173ffffffffffffffffffffffffffffffffffffffff021916908373ffffffffffffffffffffffffffffffffffffffff1602179055506020820151816001015560408201518160020160006101000a81548160ff021916908360ff160217905550606082015181600301559050506001600d60003373ffffffffffffffffffffffffffffffffffffffff1673ffffffffffffffffffffffffffffffffffffffff16815260200190815260200160002060006101000a81548160ff0219169083151502179055508273ffffffffffffffffffffffffffffffffffffffff163373ffffffffffffffffffffffffffffffffffffffff167ff3d7f560daf48a69f232401065582fa69a9b094c0721d0da67aed4055dcf8f1c8484604051611a2092919061576f565b60405180910390a3505050565b60096020528060005260406000206000915054906101000a900460ff1681565b6060806000600160149054906101000a900460ff1660ff1667ffffffffffffffff811115611a7e57611a7d61531a565b5b604051908082528060200260200182016040528015611aac5781602001602082028036833780820191505090505b5090506000600160149054906101000a900460ff1660ff1667ffffffffffffffff811115611add57611adc61531a565b5b604051908082528060200260200182016040528015611b0b5781602001602082028036833780820191505090505b50905060086000806002811115611b2557611b24615798565b5b6002811115611b3757611b36615798565b5b815260200190815260200160002060009054906101000a900473ffffffffffffffffffffffffffffffffffffffff1682600081518110611b7a57611b796157c7565b5b602002602001019073ffffffffffffffffffffffffffffffffffffffff16908173ffffffffffffffffffffffffffffffffffffffff16815250506008600060016002811115611bcc57611bcb615798565b5b6002811115611bde57611bdd615798565b5b815260200190815260200160002060009054906101000a900473ffffffffffffffffffffffffffffffffffffffff1682600181518110611c2157611c206157c7565b5b602002602001019073ffffffffffffffffffffffffffffffffffffffff16908173ffffffffffffffffffffffffffffffffffffffff168152505060086000600280811115611c7257611c71615798565b5b6002811115611c8457611c83615798565b5b815260200190815260200160002060009054906101000a900473ffffffffffffffffffffffffffffffffffffffff1682600281518110611cc757611cc66157c7565b5b602002602001019073ffffffffffffffffffffffffffffffffffffffff16908173ffffffffffffffffffffffffffffffffffffffff1681525050600560008673ffffffffffffffffffffffffffffffffffffffff1673ffffffffffffffffffffffffffffffffffffffff168152602001908152602001600020600083600081518110611d5657611d556157c7565b5b602002602001015173ffffffffffffffffffffffffffffffffffffffff1673ffffffffffffffffffffffffffffffffffffffff1681526020019081526020016000205481600081518110611dad57611dac6157c7565b5b602002602001018181525050600560008673ffffffffffffffffffffffffffffffffffffffff1673ffffffffffffffffffffffffffffffffffffffff168152602001908152602001600020600083600181518110611e0e57611e0d6157c7565b5b602002602001015173ffffffffffffffffffffffffffffffffffffffff1673ffffffffffffffffffffffffffffffffffffffff1681526020019081526020016000205481600181518110611e6557611e646157c7565b5b602002602001018181525050600560008673ffffffffffffffffffffffffffffffffffffffff1673ffffffffffffffffffffffffffffffffffffffff168152602001908152602001600020600083600281518110611ec657611ec56157c7565b5b602002602001015173ffffffffffffffffffffffffffffffffffffffff1673ffffffffffffffffffffffffffffffffffffffff1681526020019081526020016000205481600281518110611f1d57611f1c6157c7565b5b6020026020010181815250508181935093505050915091565b611f3e614212565b600073ffffffffffffffffffffffffffffffffffffffff163373ffffffffffffffffffffffffffffffffffffffff1603611fa4576040517f287170f900000000000000000000000000000000000000000000000000000000815260040160405180910390fd5b60008103611fde576040517f9cf8540c00000000000000000000000000000000000000000000000000000000815260040160405180910390fd5b600960008373ffffffffffffffffffffffffffffffffffffffff1673ffffffffffffffffffffffffffffffffffffffff16815260200190815260200160002060009054906101000a900460ff16612061576040517f1eb00b0600000000000000000000000000000000000000000000000000000000815260040160405180910390fd5b6000600b60003373ffffffffffffffffffffffffffffffffffffffff1673ffffffffffffffffffffffffffffffffffffffff16815260200190815260200160002090508273ffffffffffffffffffffffffffffffffffffffff168160000160009054906101000a900473ffffffffffffffffffffffffffffffffffffffff1673ffffffffffffffffffffffffffffffffffffffff161461212d576040517f1eb00b0600000000000000000000000000000000000000000000000000000000815260040160405180910390fd5b600060648260020160009054906101000a900460ff1660ff168461215191906157f6565b61215b9190615867565b905060008111156124b6576121708185610b5a565b6000600760003373ffffffffffffffffffffffffffffffffffffffff1673ffffffffffffffffffffffffffffffffffffffff1681526020019081526020016000205490506040518060e001604052806040518060400160405280600c81526020017f5370656e64416e6453617665000000000000000000000000000000000000000081525081526020018281526020018673ffffffffffffffffffffffffffffffffffffffff1681526020018381526020018460030154815260200142815260200184600301544261224291906152b2565b815250600660003373ffffffffffffffffffffffffffffffffffffffff1673ffffffffffffffffffffffffffffffffffffffff168152602001908152602001600020600083815260200190815260200160002060008201518160000190816122aa9190615555565b506020820151816001015560408201518160020160006101000a81548173ffffffffffffffffffffffffffffffffffffffff021916908373ffffffffffffffffffffffffffffffffffffffff160217905550606082015181600301556080820151816004015560a0820151816005015560c08201518160060155905050600760003373ffffffffffffffffffffffffffffffffffffffff1673ffffffffffffffffffffffffffffffffffffffff168152602001908152602001600020600081548092919061237790615627565b919050555081600360003373ffffffffffffffffffffffffffffffffffffffff1673ffffffffffffffffffffffffffffffffffffffff16815260200190815260200160002060008773ffffffffffffffffffffffffffffffffffffffff1673ffffffffffffffffffffffffffffffffffffffff168152602001908152602001600020600082825461240891906152b2565b9250508190555061244f6040518060400160405280600e81526020017f7370656e6420616e6420736176650000000000000000000000000000000000008152508686613f77565b8473ffffffffffffffffffffffffffffffffffffffff163373ffffffffffffffffffffffffffffffffffffffff167f3b118dd1d3abd7bc664ff130e14fa3d2bdb4a556f758c5247ddd0f7f1bf25444846040516124ac9190614856565b60405180910390a3505b50506124c0614258565b5050565b600160009054906101000a900473ffffffffffffffffffffffffffffffffffffffff1681565b600160149054906101000a900460ff1681565b60606000600460003373ffffffffffffffffffffffffffffffffffffffff1673ffffffffffffffffffffffffffffffffffffffff168152602001908152602001600020805480602002602001604051908101604052809291908181526020016000905b828210156126ee57838290600052602060002090600602016040518060c0016040529081600082015481526020016001820160009054906101000a900473ffffffffffffffffffffffffffffffffffffffff1673ffffffffffffffffffffffffffffffffffffffff1673ffffffffffffffffffffffffffffffffffffffff1681526020016002820160009054906101000a900473ffffffffffffffffffffffffffffffffffffffff1673ffffffffffffffffffffffffffffffffffffffff1673ffffffffffffffffffffffffffffffffffffffff16815260200160038201805461264990615378565b80601f016020809104026020016040519081016040528092919081815260200182805461267590615378565b80156126c25780601f10612697576101008083540402835291602001916126c2565b820191906000526020600020905b8154815290600101906020018083116126a557829003601f168201915b505050505081526020016004820154815260200160058201548152505081526020019060010190612560565b5050505090506000815190506000810361276057600067ffffffffffffffff81111561271d5761271c61531a565b5b60405190808252806020026020018201604052801561275657816020015b61274361452f565b81526020019060019003908161273b5790505b5092505050612896565b8085106127a65783816127739190615898565b8161277e91906152e6565b94508085036127a5578381116127955760006127a2565b83816127a191906152e6565b5b94505b5b600085826127b491906152e6565b9050848111156127c2578490505b60008167ffffffffffffffff8111156127de576127dd61531a565b5b60405190808252806020026020018201604052801561281757816020015b61280461452f565b8152602001906001900390816127fc5790505b50905060005b8281101561288d5784818961283291906152b2565b60018661283f91906152e6565b61284991906152e6565b8151811061285a576128596157c7565b5b6020026020010151828281518110612875576128746157c7565b5b6020026020010181905250808060010191505061281d565b50809450505050505b92915050565b600d6020528060005260406000206000915054906101000a900460ff1681565b6003602052816000526040600020602052806000526040600020600091509150505481565b6060806000600160149054906101000a900460ff1660ff1667ffffffffffffffff8111156129125761291161531a565b5b6040519080825280602002602001820160405280156129405781602001602082028036833780820191505090505b5090506000600160149054906101000a900460ff1660ff1667ffffffffffffffff8111156129715761297061531a565b5b60405190808252806020026020018201604052801561299f5781602001602082028036833780820191505090505b509050600860008060028111156129b9576129b8615798565b5b60028111156129cb576129ca615798565b5b815260200190815260200160002060009054906101000a900473ffffffffffffffffffffffffffffffffffffffff1682600081518110612a0e57612a0d6157c7565b5b602002602001019073ffffffffffffffffffffffffffffffffffffffff16908173ffffffffffffffffffffffffffffffffffffffff16815250506008600060016002811115612a6057612a5f615798565b5b6002811115612a7257612a71615798565b5b815260200190815260200160002060009054906101000a900473ffffffffffffffffffffffffffffffffffffffff1682600181518110612ab557612ab46157c7565b5b602002602001019073ffffffffffffffffffffffffffffffffffffffff16908173ffffffffffffffffffffffffffffffffffffffff168152505060086000600280811115612b0657612b05615798565b5b6002811115612b1857612b17615798565b5b815260200190815260200160002060009054906101000a900473ffffffffffffffffffffffffffffffffffffffff1682600281518110612b5b57612b5a6157c7565b5b602002602001019073ffffffffffffffffffffffffffffffffffffffff16908173ffffffffffffffffffffffffffffffffffffffff168152505060005b8251811015612e99576000838281518110612bb657612bb56157c7565b5b602002602001015190506000600560008973ffffffffffffffffffffffffffffffffffffffff1673ffffffffffffffffffffffffffffffffffffffff16815260200190815260200160002060008373ffffffffffffffffffffffffffffffffffffffff1673ffffffffffffffffffffffffffffffffffffffff1681526020019081526020016000205490506000805b600760008b73ffffffffffffffffffffffffffffffffffffffff1673ffffffffffffffffffffffffffffffffffffffff16815260200190815260200160002054811015612e5d576000600660008c73ffffffffffffffffffffffffffffffffffffffff1673ffffffffffffffffffffffffffffffffffffffff16815260200190815260200160002060008381526020019081526020016000206040518060e0016040529081600082018054612cf990615378565b80601f0160208091040260200160405190810160405280929190818152602001828054612d2590615378565b8015612d725780601f10612d4757610100808354040283529160200191612d72565b820191906000526020600020905b815481529060010190602001808311612d5557829003601f168201915b50505050508152602001600182015481526020016002820160009054906101000a900473ffffffffffffffffffffffffffffffffffffffff1673ffffffffffffffffffffffffffffffffffffffff1673ffffffffffffffffffffffffffffffffffffffff16815260200160038201548152602001600482015481526020016005820154815260200160068201548152505090508473ffffffffffffffffffffffffffffffffffffffff16816040015173ffffffffffffffffffffffffffffffffffffffff1603612e4f57806060015183612e4c91906152b2565b92505b508080600101915050612c45565b508082612e6a91906152b2565b858581518110612e7d57612e7c6157c7565b5b6020026020010181815250505050508080600101915050612b98565b508181935093505050915091565b60046020528160005260406000208181548110612ec357600080fd5b9060005260206000209060060201600091509150508060000154908060010160009054906101000a900473ffffffffffffffffffffffffffffffffffffffff16908060020160009054906101000a900473ffffffffffffffffffffffffffffffffffffffff1690806003018054612f3990615378565b80601f0160208091040260200160405190810160405280929190818152602001828054612f6590615378565b8015612fb25780601f10612f8757610100808354040283529160200191612fb2565b820191906000526020600020905b815481529060010190602001808311612f9557829003601f168201915b5050505050908060040154908060050154905086565b612fd0614212565b6000600660003373ffffffffffffffffffffffffffffffffffffffff1673ffffffffffffffffffffffffffffffffffffffff168152602001908152602001600020600084815260200190815260200160002090506000816003015403613062576040517fc945242d00000000000000000000000000000000000000000000000000000000815260040160405180910390fd5b6000816006015442101590506000816130cc57836130ac576040517fc945242d00000000000000000000000000000000000000000000000000000000815260040160405180910390fd5b6064600184600301546130bf91906157f6565b6130c99190615867565b90505b60008184600301546130de91906152e6565b905083600301548460030160008282546130f891906152e6565b9250508190555080600560003373ffffffffffffffffffffffffffffffffffffffff1673ffffffffffffffffffffffffffffffffffffffff16815260200190815260200160002060008660020160009054906101000a900473ffffffffffffffffffffffffffffffffffffffff1673ffffffffffffffffffffffffffffffffffffffff1673ffffffffffffffffffffffffffffffffffffffff16815260200190815260200160002060008282546131af91906152b2565b925050819055506000821115613299578160056000600160009054906101000a900473ffffffffffffffffffffffffffffffffffffffff1673ffffffffffffffffffffffffffffffffffffffff1673ffffffffffffffffffffffffffffffffffffffff16815260200190815260200160002060008660020160009054906101000a900473ffffffffffffffffffffffffffffffffffffffff1673ffffffffffffffffffffffffffffffffffffffff1673ffffffffffffffffffffffffffffffffffffffff168152602001908152602001600020600082825461329191906152b2565b925050819055505b600084600301540361335857600660003373ffffffffffffffffffffffffffffffffffffffff1673ffffffffffffffffffffffffffffffffffffffff1681526020019081526020016000206000878152602001908152602001600020600080820160006133069190614591565b60018201600090556002820160006101000a81549073ffffffffffffffffffffffffffffffffffffffff0219169055600382016000905560048201600090556005820160009055600682016000905550505b6133c06040518060400160405280600681526020017f756e6c6f636b00000000000000000000000000000000000000000000000000008152508560020160009054906101000a900473ffffffffffffffffffffffffffffffffffffffff168660030154613f77565b3373ffffffffffffffffffffffffffffffffffffffff167f1e6744cf99e958a70221fb97952f96f75e084ed8cf6e03d1e52de8edab644ca7856003015484861560405161340f939291906158c9565b60405180910390a250505050613423614258565b5050565b600a6020528060005260406000206000915090508060000160009054906101000a900473ffffffffffffffffffffffffffffffffffffffff16908060010154908060020154908060030154908060040154905085565b613485614212565b600081036134bf576040517f9cf8540c00000000000000000000000000000000000000000000000000000000815260040160405180910390fd5b80600560003373ffffffffffffffffffffffffffffffffffffffff1673ffffffffffffffffffffffffffffffffffffffff16815260200190815260200160002060008473ffffffffffffffffffffffffffffffffffffffff1673ffffffffffffffffffffffffffffffffffffffff168152602001908152602001600020541015613575576040517f356680b700000000000000000000000000000000000000000000000000000000815260040160405180910390fd5b80600560003373ffffffffffffffffffffffffffffffffffffffff1673ffffffffffffffffffffffffffffffffffffffff16815260200190815260200160002060008473ffffffffffffffffffffffffffffffffffffffff1673ffffffffffffffffffffffffffffffffffffffff168152602001908152602001600020600082825461360191906152e6565b9250508190555061363333828473ffffffffffffffffffffffffffffffffffffffff166142629092919063ffffffff16565b6136736040518060400160405280600a81526020017f7769746864726177616c000000000000000000000000000000000000000000008152508383613f77565b3373ffffffffffffffffffffffffffffffffffffffff167fd1c19fbcd4551a5edfb66d43d2e337c04837afda3482b42bdf569a8fccdae5fb83836040516136bb929190615900565b60405180910390a26136cb614258565b5050565b60606000600a60003373ffffffffffffffffffffffffffffffffffffffff1673ffffffffffffffffffffffffffffffffffffffff168152602001908152602001600020905060008160010154148061372b575060008160020154145b8061373a575060008160030154145b1561379c57600067ffffffffffffffff81111561375a5761375961531a565b5b60405190808252806020026020018201604052801561379357816020015b6137806145d1565b8152602001906001900390816137785790505b509150506138ee565b60008160040154426137ae91906152e6565b82600301546137bd91906152e6565b905060008260020154826137d19190615867565b905060008167ffffffffffffffff8111156137ef576137ee61531a565b5b60405190808252806020026020018201604052801561382857816020015b6138156145d1565b81526020019060019003908161380d5790505b50905060008460020154856004015461384191906152b2565b905060005b838110156138e45760405180606001604052808760000160009054906101000a900473ffffffffffffffffffffffffffffffffffffffff1673ffffffffffffffffffffffffffffffffffffffff16815260200187600101548152602001838152508382815181106138ba576138b96157c7565b5b60200260200101819052508560020154826138d591906152b2565b91508080600101915050613846565b5081955050505050505b90565b565b600960008573ffffffffffffffffffffffffffffffffffffffff1673ffffffffffffffffffffffffffffffffffffffff16815260200190815260200160002060009054906101000a900460ff16613976576040517f1eb00b0600000000000000000000000000000000000000000000000000000000815260040160405180910390fd5b60008314806139855750600082145b156139bc576040517f9cf8540c00000000000000000000000000000000000000000000000000000000815260040160405180910390fd5b6301e133808211156139fa576040517fb4fa3fb300000000000000000000000000000000000000000000000000000000815260040160405180910390fd5b600d60003373ffffffffffffffffffffffffffffffffffffffff1673ffffffffffffffffffffffffffffffffffffffff16815260200190815260200160002060009054906101000a900460ff1615613a7e576040517fc14b923300000000000000000000000000000000000000000000000000000000815260040160405180910390fd5b6040518060a001604052808573ffffffffffffffffffffffffffffffffffffffff16815260200184815260200183815260200182815260200142815250600a60003373ffffffffffffffffffffffffffffffffffffffff1673ffffffffffffffffffffffffffffffffffffffff16815260200190815260200160002060008201518160000160006101000a81548173ffffffffffffffffffffffffffffffffffffffff021916908373ffffffffffffffffffffffffffffffffffffffff160217905550602082015181600101556040820151816002015560608201518160030155608082015181600401559050506001600d60003373ffffffffffffffffffffffffffffffffffffffff1673ffffffffffffffffffffffffffffffffffffffff16815260200190815260200160002060006101000a81548160ff0219169083151502179055506001600e60003373ffffffffffffffffffffffffffffffffffffffff1673ffffffffffffffffffffffffffffffffffffffff16815260200190815260200160002060008673ffffffffffffffffffffffffffffffffffffffff1673ffffffffffffffffffffffffffffffffffffffff16815260200190815260200160002060006101000a81548160ff0219169083151502179055508373ffffffffffffffffffffffffffffffffffffffff163373ffffffffffffffffffffffffffffffffffffffff167f8d887a623cbba84fa8448bf3a79b0ecab3ea7d2d84310cad96bbd68aca69969d8585604051613cb89291906156da565b60405180910390a350505050565b600b6020528060005260406000206000915090508060000160009054906101000a900473ffffffffffffffffffffffffffffffffffffffff16908060010154908060020160009054906101000a900460ff16908060030154905084565b60606000600760008473ffffffffffffffffffffffffffffffffffffffff1673ffffffffffffffffffffffffffffffffffffffff16815260200190815260200160002054905060008167ffffffffffffffff811115613d8557613d8461531a565b5b604051908082528060200260200182016040528015613dbe57816020015b613dab614608565b815260200190600190039081613da35790505b50905060005b82811015613f6c57600660008673ffffffffffffffffffffffffffffffffffffffff1673ffffffffffffffffffffffffffffffffffffffff16815260200190815260200160002060008281526020019081526020016000206040518060e0016040529081600082018054613e3790615378565b80601f0160208091040260200160405190810160405280929190818152602001828054613e6390615378565b8015613eb05780601f10613e8557610100808354040283529160200191613eb0565b820191906000526020600020905b815481529060010190602001808311613e9357829003601f168201915b50505050508152602001600182015481526020016002820160009054906101000a900473ffffffffffffffffffffffffffffffffffffffff1673ffffffffffffffffffffffffffffffffffffffff1673ffffffffffffffffffffffffffffffffffffffff168152602001600382015481526020016004820154815260200160058201548152602001600682015481525050828281518110613f5457613f536157c7565b5b60200260200101819052508080600101915050613dc4565b508092505050919050565b60006040518060c0016040528060026000815480929190613f9790615627565b9190505581526020013373ffffffffffffffffffffffffffffffffffffffff1681526020018473ffffffffffffffffffffffffffffffffffffffff168152602001858152602001838152602001428152509050600460003373ffffffffffffffffffffffffffffffffffffffff1673ffffffffffffffffffffffffffffffffffffffff1681526020019081526020016000208190806001815401808255809150506001900390600052602060002090600602016000909190919091506000820151816000015560208201518160010160006101000a81548173ffffffffffffffffffffffffffffffffffffffff021916908373ffffffffffffffffffffffffffffffffffffffff16021790555060408201518160020160006101000a81548173ffffffffffffffffffffffffffffffffffffffff021916908373ffffffffffffffffffffffffffffffffffffffff16021790555060608201518160030190816141009190615555565b506080820151816004015560a0820151816005015550508273ffffffffffffffffffffffffffffffffffffffff163373ffffffffffffffffffffffffffffffffffffffff167f35c66f3706f0b2af281e2212c10363e79d4ebfbd1a9a57cb4f63d1145028c2ec6002548460000151888742604051614182959493929190615929565b60405180910390a350505050565b61420c848573ffffffffffffffffffffffffffffffffffffffff166323b872dd8686866040516024016141c593929190615983565b604051602081830303815290604052915060e01b6020820180517bffffffffffffffffffffffffffffffffffffffffffffffffffffffff83818316178352505050506142e1565b50505050565b60026000540361424e576040517f3ee5aeb500000000000000000000000000000000000000000000000000000000815260040160405180910390fd5b6002600081905550565b6001600081905550565b6142dc838473ffffffffffffffffffffffffffffffffffffffff1663a9059cbb8585604051602401614295929190615900565b604051602081830303815290604052915060e01b6020820180517bffffffffffffffffffffffffffffffffffffffffffffffffffffffff83818316178352505050506142e1565b505050565b600061430c828473ffffffffffffffffffffffffffffffffffffffff1661437890919063ffffffff16565b9050600081511415801561433157508080602001905181019061432f91906159cf565b155b1561437357826040517f5274afe700000000000000000000000000000000000000000000000000000000815260040161436a91906148d2565b60405180910390fd5b505050565b60606143868383600061438e565b905092915050565b6060814710156143d557306040517fcd7860590000000000000000000000000000000000000000000000000000000081526004016143cc91906148d2565b60405180910390fd5b6000808573ffffffffffffffffffffffffffffffffffffffff1684866040516143fe9190615a43565b60006040518083038185875af1925050503d806000811461443b576040519150601f19603f3d011682016040523d82523d6000602084013e614440565b606091505b509150915061445086838361445b565b925050509392505050565b6060826144705761446b826144ea565b6144e2565b60008251148015614498575060008473ffffffffffffffffffffffffffffffffffffffff163b145b156144da57836040517f9996b3150000000000000000000000000000000000000000000000000000000081526004016144d191906148d2565b60405180910390fd5b8190506144e3565b5b9392505050565b6000815111156144fd5780518082602001fd5b6040517f1425ea4200000000000000000000000000000000000000000000000000000000815260040160405180910390fd5b6040518060c0016040528060008152602001600073ffffffffffffffffffffffffffffffffffffffff168152602001600073ffffffffffffffffffffffffffffffffffffffff1681526020016060815260200160008152602001600081525090565b50805461459d90615378565b6000825580601f106145af57506145ce565b601f0160209004906000526020600020908101906145cd919061465b565b5b50565b6040518060600160405280600073ffffffffffffffffffffffffffffffffffffffff16815260200160008152602001600081525090565b6040518060e001604052806060815260200160008152602001600073ffffffffffffffffffffffffffffffffffffffff168152602001600081526020016000815260200160008152602001600081525090565b5b8082111561467457600081600090555060010161465c565b5090565b600080fd5b600073ffffffffffffffffffffffffffffffffffffffff82169050919050565b60006146a88261467d565b9050919050565b6146b88161469d565b81146146c357600080fd5b50565b6000813590506146d5816146af565b92915050565b6000602082840312156146f1576146f0614678565b5b60006146ff848285016146c6565b91505092915050565b6000819050919050565b61471b81614708565b811461472657600080fd5b50565b60008135905061473881614712565b92915050565b6000806040838503121561475557614754614678565b5b600061476385828601614729565b9250506020614774858286016146c6565b9150509250929050565b6000806040838503121561479557614794614678565b5b60006147a3858286016146c6565b92505060206147b4858286016146c6565b9150509250929050565b60008115159050919050565b6147d3816147be565b82525050565b60006020820190506147ee60008301846147ca565b92915050565b60008060006060848603121561480d5761480c614678565b5b600061481b868287016146c6565b935050602061482c86828701614729565b925050604061483d86828701614729565b9150509250925092565b61485081614708565b82525050565b600060208201905061486b6000830184614847565b92915050565b6003811061487e57600080fd5b50565b60008135905061489081614871565b92915050565b6000602082840312156148ac576148ab614678565b5b60006148ba84828501614881565b91505092915050565b6148cc8161469d565b82525050565b60006020820190506148e760008301846148c3565b92915050565b600060ff82169050919050565b614903816148ed565b811461490e57600080fd5b50565b600081359050614920816148fa565b92915050565b60008060006060848603121561493f5761493e614678565b5b600061494d868287016146c6565b935050602061495e86828701614911565b925050604061496f86828701614729565b9150509250925092565b600081519050919050565b600082825260208201905092915050565b6000819050602082019050919050565b6149ae8161469d565b82525050565b60006149c083836149a5565b60208301905092915050565b6000602082019050919050565b60006149e482614979565b6149ee8185614984565b93506149f983614995565b8060005b83811015614a2a578151614a1188826149b4565b9750614a1c836149cc565b9250506001810190506149fd565b5085935050505092915050565b600081519050919050565b600082825260208201905092915050565b6000819050602082019050919050565b614a6c81614708565b82525050565b6000614a7e8383614a63565b60208301905092915050565b6000602082019050919050565b6000614aa282614a37565b614aac8185614a42565b9350614ab783614a53565b8060005b83811015614ae8578151614acf8882614a72565b9750614ada83614a8a565b925050600181019050614abb565b5085935050505092915050565b60006040820190508181036000830152614b0f81856149d9565b90508181036020830152614b238184614a97565b90509392505050565b60008060408385031215614b4357614b42614678565b5b6000614b51858286016146c6565b9250506020614b6285828601614729565b9150509250929050565b614b75816148ed565b82525050565b6000602082019050614b906000830184614b6c565b92915050565b60008060408385031215614bad57614bac614678565b5b6000614bbb85828601614729565b9250506020614bcc85828601614729565b9150509250929050565b600081519050919050565b600082825260208201905092915050565b6000819050602082019050919050565b600081519050919050565b600082825260208201905092915050565b60005b83811015614c3c578082015181840152602081019050614c21565b60008484015250505050565b6000601f19601f8301169050919050565b6000614c6482614c02565b614c6e8185614c0d565b9350614c7e818560208601614c1e565b614c8781614c48565b840191505092915050565b600060c083016000830151614caa6000860182614a63565b506020830151614cbd60208601826149a5565b506040830151614cd060408601826149a5565b5060608301518482036060860152614ce88282614c59565b9150506080830151614cfd6080860182614a63565b5060a0830151614d1060a0860182614a63565b508091505092915050565b6000614d278383614c92565b905092915050565b6000602082019050919050565b6000614d4782614bd6565b614d518185614be1565b935083602082028501614d6385614bf2565b8060005b85811015614d9f5784840389528151614d808582614d1b565b9450614d8b83614d2f565b925060208a01995050600181019050614d67565b50829750879550505050505092915050565b60006020820190508181036000830152614dcb8184614d3c565b905092915050565b600082825260208201905092915050565b6000614def82614c02565b614df98185614dd3565b9350614e09818560208601614c1e565b614e1281614c48565b840191505092915050565b600060c082019050614e326000830189614847565b614e3f60208301886148c3565b614e4c60408301876148c3565b8181036060830152614e5e8186614de4565b9050614e6d6080830185614847565b614e7a60a0830184614847565b979650505050505050565b614e8e816147be565b8114614e9957600080fd5b50565b600081359050614eab81614e85565b92915050565b60008060408385031215614ec857614ec7614678565b5b6000614ed685828601614729565b9250506020614ee785828601614e9c565b9150509250929050565b600060a082019050614f0660008301886148c3565b614f136020830187614847565b614f206040830186614847565b614f2d6060830185614847565b614f3a6080830184614847565b9695505050505050565b600081519050919050565b600082825260208201905092915050565b6000819050602082019050919050565b606082016000820151614f8660008501826149a5565b506020820151614f996020850182614a63565b506040820151614fac6040850182614a63565b50505050565b6000614fbe8383614f70565b60608301905092915050565b6000602082019050919050565b6000614fe282614f44565b614fec8185614f4f565b9350614ff783614f60565b8060005b8381101561502857815161500f8882614fb2565b975061501a83614fca565b925050600181019050614ffb565b5085935050505092915050565b6000602082019050818103600083015261504f8184614fd7565b905092915050565b6000806000806080858703121561507157615070614678565b5b600061507f878288016146c6565b945050602061509087828801614729565b93505060406150a187828801614729565b92505060606150b287828801614729565b91505092959194509250565b60006080820190506150d360008301876148c3565b6150e06020830186614847565b6150ed6040830185614b6c565b6150fa6060830184614847565b95945050505050565b600081519050919050565b600082825260208201905092915050565b6000819050602082019050919050565b600060e083016000830151848203600086015261514c8282614c59565b91505060208301516151616020860182614a63565b50604083015161517460408601826149a5565b5060608301516151876060860182614a63565b50608083015161519a6080860182614a63565b5060a08301516151ad60a0860182614a63565b5060c08301516151c060c0860182614a63565b508091505092915050565b60006151d7838361512f565b905092915050565b6000602082019050919050565b60006151f782615103565b615201818561510e565b9350836020820285016152138561511f565b8060005b8581101561524f578484038952815161523085826151cb565b945061523b836151df565b925060208a01995050600181019050615217565b50829750879550505050505092915050565b6000602082019050818103600083015261527b81846151ec565b905092915050565b7f4e487b7100000000000000000000000000000000000000000000000000000000600052601160045260246000fd5b60006152bd82614708565b91506152c883614708565b92508282019050808211156152e0576152df615283565b5b92915050565b60006152f182614708565b91506152fc83614708565b925082820390508181111561531457615313615283565b5b92915050565b7f4e487b7100000000000000000000000000000000000000000000000000000000600052604160045260246000fd5b7f4e487b7100000000000000000000000000000000000000000000000000000000600052602260045260246000fd5b6000600282049050600182168061539057607f821691505b6020821081036153a3576153a2615349565b5b50919050565b60008190508160005260206000209050919050565b60006020601f8301049050919050565b600082821b905092915050565b60006008830261540b7fffffffffffffffffffffffffffffffffffffffffffffffffffffffffffffffff826153ce565b61541586836153ce565b95508019841693508086168417925050509392505050565b6000819050919050565b600061545261544d61544884614708565b61542d565b614708565b9050919050565b6000819050919050565b61546c83615437565b61548061547882615459565b8484546153db565b825550505050565b600090565b615495615488565b6154a0818484615463565b505050565b5b818110156154c4576154b960008261548d565b6001810190506154a6565b5050565b601f821115615509576154da816153a9565b6154e3846153be565b810160208510156154f2578190505b6155066154fe856153be565b8301826154a5565b50505b505050565b600082821c905092915050565b600061552c6000198460080261550e565b1980831691505092915050565b6000615545838361551b565b9150826002028217905092915050565b61555e82614c02565b67ffffffffffffffff8111156155775761557661531a565b5b6155818254615378565b61558c8282856154c8565b600060209050601f8311600181146155bf57600084156155ad578287015190505b6155b78582615539565b86555061561f565b601f1984166155cd866153a9565b60005b828110156155f5578489015182556001820191506020850194506020810190506155d0565b86831015615612578489015161560e601f89168261551b565b8355505b6001600288020188555050505b505050505050565b600061563282614708565b91507fffffffffffffffffffffffffffffffffffffffffffffffffffffffffffffffff820361566457615663615283565b5b600182019050919050565b60008151905061567e81614712565b92915050565b60006020828403121561569a57615699614678565b5b60006156a88482850161566f565b91505092915050565b60006040820190506156c660008301856148c3565b6156d360208301846148c3565b9392505050565b60006040820190506156ef6000830185614847565b6156fc6020830184614847565b9392505050565b7f556e617574686f72697a65642063616c6c657200000000000000000000000000600082015250565b6000615739601383614dd3565b915061574482615703565b602082019050919050565b600060208201905081810360008301526157688161572c565b9050919050565b60006040820190506157846000830185614b6c565b6157916020830184614847565b9392505050565b7f4e487b7100000000000000000000000000000000000000000000000000000000600052602160045260246000fd5b7f4e487b7100000000000000000000000000000000000000000000000000000000600052603260045260246000fd5b600061580182614708565b915061580c83614708565b925082820261581a81614708565b9150828204841483151761583157615830615283565b5b5092915050565b7f4e487b7100000000000000000000000000000000000000000000000000000000600052601260045260246000fd5b600061587282614708565b915061587d83614708565b92508261588d5761588c615838565b5b828204905092915050565b60006158a382614708565b91506158ae83614708565b9250826158be576158bd615838565b5b828206905092915050565b60006060820190506158de6000830186614847565b6158eb6020830185614847565b6158f860408301846147ca565b949350505050565b600060408201905061591560008301856148c3565b6159226020830184614847565b9392505050565b600060a08201905061593e6000830188614847565b61594b6020830187614847565b818103604083015261595d8186614de4565b905061596c6060830185614847565b6159796080830184614847565b9695505050505050565b600060608201905061599860008301866148c3565b6159a560208301856148c3565b6159b26040830184614847565b949350505050565b6000815190506159c981614e85565b92915050565b6000602082840312156159e5576159e4614678565b5b60006159f3848285016159ba565b91505092915050565b600081519050919050565b600081905092915050565b6000615a1d826159fc565b615a278185615a07565b9350615a37818560208601614c1e565b80840191505092915050565b6000615a4f8284615a12565b91508190509291505056fea264697066735822122012e154a7be0de9d077136c9daa475ffc8f0abfbf500cc0e5b9399a45eb4e9b8464736f6c63430008180033",
  "linkReferences": {},
  "deployedLinkReferences": {}
}